{
  "_format": "hh-sol-artifact-1",
  "contractName": "ETHRegistrarController",
  "sourceName": "contracts/ethregistrar/ETHRegistrarController.sol",
  "abi": [
    {
      "inputs": [
        {
          "internalType": "contract BaseRegistrarImplementation",
          "name": "_base",
          "type": "address"
        },
        {
          "internalType": "contract IPriceOracle",
          "name": "_prices",
          "type": "address"
        },
        {
          "internalType": "uint256",
          "name": "_minCommitmentAge",
          "type": "uint256"
        },
        {
          "internalType": "uint256",
          "name": "_maxCommitmentAge",
          "type": "uint256"
        },
        {
          "internalType": "contract ReverseRegistrar",
          "name": "_reverseRegistrar",
          "type": "address"
        },
        {
          "internalType": "contract INameWrapper",
          "name": "_nameWrapper",
          "type": "address"
        }
      ],
      "stateMutability": "nonpayable",
      "type": "constructor"
    },
    {
      "inputs": [
        {
          "internalType": "bytes32",
          "name": "commitment",
          "type": "bytes32"
        }
      ],
      "name": "CommitmentTooNew",
      "type": "error"
    },
    {
      "inputs": [
        {
          "internalType": "bytes32",
          "name": "commitment",
          "type": "bytes32"
        }
      ],
      "name": "CommitmentTooOld",
      "type": "error"
    },
    {
      "inputs": [
        {
          "internalType": "uint256",
          "name": "duration",
          "type": "uint256"
        }
      ],
      "name": "DurationTooShort",
      "type": "error"
    },
    {
      "inputs": [],
      "name": "InsufficientValue",
      "type": "error"
    },
    {
      "inputs": [],
      "name": "MaxCommitmentAgeTooHigh",
      "type": "error"
    },
    {
      "inputs": [],
      "name": "MaxCommitmentAgeTooLow",
      "type": "error"
    },
    {
      "inputs": [
        {
          "internalType": "string",
          "name": "name",
          "type": "string"
        }
      ],
      "name": "NameNotAvailable",
      "type": "error"
    },
    {
      "inputs": [],
      "name": "ResolverRequiredWhenDataSupplied",
      "type": "error"
    },
    {
      "inputs": [
        {
          "internalType": "bytes32",
          "name": "node",
          "type": "bytes32"
        }
      ],
      "name": "Unauthorised",
      "type": "error"
    },
    {
      "inputs": [
        {
          "internalType": "bytes32",
          "name": "commitment",
          "type": "bytes32"
        }
      ],
      "name": "UnexpiredCommitmentExists",
      "type": "error"
    },
    {
      "anonymous": false,
      "inputs": [
        {
          "indexed": false,
          "internalType": "string",
          "name": "name",
          "type": "string"
        },
        {
          "indexed": true,
          "internalType": "address",
          "name": "owner",
          "type": "address"
        },
        {
          "indexed": false,
          "internalType": "string",
          "name": "inviteCode",
          "type": "string"
        }
      ],
      "name": "NameInvited",
      "type": "event"
    },
    {
      "anonymous": false,
      "inputs": [
        {
          "indexed": false,
          "internalType": "string",
          "name": "name",
          "type": "string"
        },
        {
          "indexed": true,
          "internalType": "bytes32",
          "name": "label",
          "type": "bytes32"
        },
        {
          "indexed": true,
          "internalType": "address",
          "name": "owner",
          "type": "address"
        },
        {
          "indexed": false,
          "internalType": "uint256",
          "name": "baseCost",
          "type": "uint256"
        },
        {
          "indexed": false,
          "internalType": "uint256",
          "name": "premium",
          "type": "uint256"
        },
        {
          "indexed": false,
          "internalType": "uint256",
          "name": "expires",
          "type": "uint256"
        }
      ],
      "name": "NameRegistered",
      "type": "event"
    },
    {
      "anonymous": false,
      "inputs": [
        {
          "indexed": false,
          "internalType": "string",
          "name": "name",
          "type": "string"
        },
        {
          "indexed": true,
          "internalType": "bytes32",
          "name": "label",
          "type": "bytes32"
        },
        {
          "indexed": false,
          "internalType": "uint256",
          "name": "cost",
          "type": "uint256"
        },
        {
          "indexed": false,
          "internalType": "uint256",
          "name": "expires",
          "type": "uint256"
        }
      ],
      "name": "NameRenewed",
      "type": "event"
    },
    {
      "anonymous": false,
      "inputs": [
        {
          "indexed": true,
          "internalType": "address",
          "name": "previousOwner",
          "type": "address"
        },
        {
          "indexed": true,
          "internalType": "address",
          "name": "newOwner",
          "type": "address"
        }
      ],
      "name": "OwnershipTransferred",
      "type": "event"
    },
    {
      "inputs": [],
      "name": "MIN_REGISTRATION_DURATION",
      "outputs": [
        {
          "internalType": "uint256",
          "name": "",
          "type": "uint256"
        }
      ],
      "stateMutability": "view",
      "type": "function"
    },
    {
      "inputs": [
        {
          "internalType": "string",
          "name": "name",
          "type": "string"
        }
      ],
      "name": "available",
      "outputs": [
        {
          "internalType": "bool",
          "name": "",
          "type": "bool"
        }
      ],
      "stateMutability": "view",
      "type": "function"
    },
    {
      "inputs": [
        {
          "internalType": "bytes32",
          "name": "commitment",
          "type": "bytes32"
        }
      ],
      "name": "commit",
      "outputs": [],
      "stateMutability": "nonpayable",
      "type": "function"
    },
    {
      "inputs": [
        {
          "internalType": "bytes32",
          "name": "",
          "type": "bytes32"
        }
      ],
      "name": "commitments",
      "outputs": [
        {
          "internalType": "uint256",
          "name": "",
          "type": "uint256"
        }
      ],
      "stateMutability": "view",
      "type": "function"
    },
    {
      "inputs": [
        {
          "internalType": "string",
          "name": "name",
          "type": "string"
        },
        {
          "internalType": "address",
          "name": "owner",
          "type": "address"
        },
        {
          "internalType": "uint256",
          "name": "duration",
          "type": "uint256"
        },
        {
          "internalType": "bytes32",
          "name": "secret",
          "type": "bytes32"
        },
        {
          "internalType": "address",
          "name": "resolver",
          "type": "address"
        },
        {
          "internalType": "bytes[]",
          "name": "data",
          "type": "bytes[]"
        },
        {
          "internalType": "bool",
          "name": "reverseRecord",
          "type": "bool"
        },
        {
          "internalType": "uint32",
          "name": "fuses",
          "type": "uint32"
        },
        {
          "internalType": "uint64",
          "name": "wrapperExpiry",
          "type": "uint64"
        }
      ],
      "name": "makeCommitment",
      "outputs": [
        {
          "internalType": "bytes32",
          "name": "",
          "type": "bytes32"
        }
      ],
      "stateMutability": "pure",
      "type": "function"
    },
    {
      "inputs": [],
      "name": "maxCommitmentAge",
      "outputs": [
        {
          "internalType": "uint256",
          "name": "",
          "type": "uint256"
        }
      ],
      "stateMutability": "view",
      "type": "function"
    },
    {
      "inputs": [],
      "name": "minCommitmentAge",
      "outputs": [
        {
          "internalType": "uint256",
          "name": "",
          "type": "uint256"
        }
      ],
      "stateMutability": "view",
      "type": "function"
    },
    {
      "inputs": [],
      "name": "nameWrapper",
      "outputs": [
        {
          "internalType": "contract INameWrapper",
          "name": "",
          "type": "address"
        }
      ],
      "stateMutability": "view",
      "type": "function"
    },
    {
      "inputs": [],
      "name": "owner",
      "outputs": [
        {
          "internalType": "address",
          "name": "",
          "type": "address"
        }
      ],
      "stateMutability": "view",
      "type": "function"
    },
    {
      "inputs": [],
      "name": "prices",
      "outputs": [
        {
          "internalType": "contract IPriceOracle",
          "name": "",
          "type": "address"
        }
      ],
      "stateMutability": "view",
      "type": "function"
    },
    {
      "inputs": [
        {
          "internalType": "address",
          "name": "_token",
          "type": "address"
        },
        {
          "internalType": "address",
          "name": "_to",
          "type": "address"
        },
        {
          "internalType": "uint256",
          "name": "_amount",
          "type": "uint256"
        }
      ],
      "name": "recoverFunds",
      "outputs": [],
      "stateMutability": "nonpayable",
      "type": "function"
    },
    {
      "inputs": [
        {
          "internalType": "string",
          "name": "name",
          "type": "string"
        },
        {
          "internalType": "address",
          "name": "owner",
          "type": "address"
        },
        {
          "internalType": "uint256",
          "name": "duration",
          "type": "uint256"
        },
        {
          "internalType": "bytes32",
          "name": "secret",
          "type": "bytes32"
        },
        {
          "internalType": "address",
          "name": "resolver",
          "type": "address"
        },
        {
          "internalType": "bytes[]",
          "name": "data",
          "type": "bytes[]"
        },
        {
          "internalType": "bool",
          "name": "reverseRecord",
          "type": "bool"
        },
        {
          "internalType": "uint32",
          "name": "fuses",
          "type": "uint32"
        },
        {
          "internalType": "uint64",
          "name": "wrapperExpiry",
          "type": "uint64"
        }
      ],
      "name": "register",
      "outputs": [],
      "stateMutability": "payable",
      "type": "function"
    },
    {
      "inputs": [
        {
          "components": [
            {
              "internalType": "string",
              "name": "name",
              "type": "string"
            },
            {
              "internalType": "address",
              "name": "owner",
              "type": "address"
            },
            {
              "internalType": "uint256",
              "name": "duration",
              "type": "uint256"
            },
            {
              "internalType": "bytes32",
              "name": "secret",
              "type": "bytes32"
            },
            {
              "internalType": "address",
              "name": "resolver",
              "type": "address"
            },
            {
              "internalType": "bytes[]",
              "name": "data",
              "type": "bytes[]"
            },
            {
              "internalType": "bool",
              "name": "reverseRecord",
              "type": "bool"
            },
            {
              "internalType": "uint32",
              "name": "fuses",
              "type": "uint32"
            },
            {
              "internalType": "uint64",
              "name": "wrapperExpiry",
              "type": "uint64"
            },
            {
              "internalType": "string",
              "name": "inviteCode",
              "type": "string"
            }
          ],
          "internalType": "struct IETHRegistrarController.RegisterData",
          "name": "resData",
          "type": "tuple"
        }
      ],
      "name": "registerWithInviteCode",
      "outputs": [],
      "stateMutability": "payable",
      "type": "function"
    },
    {
      "inputs": [
        {
          "internalType": "string",
          "name": "name",
          "type": "string"
        },
        {
          "internalType": "uint256",
          "name": "duration",
          "type": "uint256"
        }
      ],
      "name": "renew",
      "outputs": [],
      "stateMutability": "payable",
      "type": "function"
    },
    {
      "inputs": [
        {
          "internalType": "string",
          "name": "name",
          "type": "string"
        },
        {
          "internalType": "uint256",
          "name": "duration",
          "type": "uint256"
        },
        {
          "internalType": "uint32",
          "name": "fuses",
          "type": "uint32"
        },
        {
          "internalType": "uint64",
          "name": "wrapperExpiry",
          "type": "uint64"
        }
      ],
      "name": "renewWithFuses",
      "outputs": [],
      "stateMutability": "payable",
      "type": "function"
    },
    {
      "inputs": [],
      "name": "renounceOwnership",
      "outputs": [],
      "stateMutability": "nonpayable",
      "type": "function"
    },
    {
      "inputs": [
        {
          "internalType": "string",
          "name": "name",
          "type": "string"
        },
        {
          "internalType": "uint256",
          "name": "duration",
          "type": "uint256"
        }
      ],
      "name": "rentPrice",
      "outputs": [
        {
          "components": [
            {
              "internalType": "uint256",
              "name": "base",
              "type": "uint256"
            },
            {
              "internalType": "uint256",
              "name": "premium",
              "type": "uint256"
            }
          ],
          "internalType": "struct IPriceOracle.Price",
          "name": "price",
          "type": "tuple"
        }
      ],
      "stateMutability": "view",
      "type": "function"
    },
    {
      "inputs": [],
      "name": "reverseRegistrar",
      "outputs": [
        {
          "internalType": "contract ReverseRegistrar",
          "name": "",
          "type": "address"
        }
      ],
      "stateMutability": "view",
      "type": "function"
    },
    {
      "inputs": [
        {
          "internalType": "bytes4",
          "name": "interfaceID",
          "type": "bytes4"
        }
      ],
      "name": "supportsInterface",
      "outputs": [
        {
          "internalType": "bool",
          "name": "",
          "type": "bool"
        }
      ],
      "stateMutability": "pure",
      "type": "function"
    },
    {
      "inputs": [
        {
          "internalType": "address",
          "name": "newOwner",
          "type": "address"
        }
      ],
      "name": "transferOwnership",
      "outputs": [],
      "stateMutability": "nonpayable",
      "type": "function"
    },
    {
      "inputs": [
        {
          "internalType": "string",
          "name": "name",
          "type": "string"
        }
      ],
      "name": "valid",
      "outputs": [
        {
          "internalType": "bool",
          "name": "",
          "type": "bool"
        }
      ],
      "stateMutability": "pure",
      "type": "function"
    },
    {
      "inputs": [],
      "name": "withdraw",
      "outputs": [],
      "stateMutability": "nonpayable",
      "type": "function"
    }
  ],
  "bytecode": "0x6101406040523480156200001257600080fd5b50604051620028bb380380620028bb83398101604081905262000035916200011a565b6200004033620000b1565b83831162000061576040516307cb550760e31b815260040160405180910390fd5b428311156200008357604051630b4319e560e21b815260040160405180910390fd5b6001600160a01b0395861660805293851660a05260c09290925260e052821661010052166101205262000197565b600080546001600160a01b038381166001600160a01b0319831681178455604051919092169283917f8be0079c531659141344cd1fd0a4f28419497f9722a3daafe3b4186f6b6457e09190a35050565b6001600160a01b03811681146200011757600080fd5b50565b60008060008060008060c087890312156200013457600080fd5b8651620001418162000101565b6020880151909650620001548162000101565b8095505060408701519350606087015192506080870151620001768162000101565b60a0880151909250620001898162000101565b809150509295509295509295565b60805160a05160c05160e051610100516101205161269562000226600039600081816103ab015281816108b601528181610b4b015261152201526000818161024601526119100152600081816104120152818161108a015261173801526000818161032c01526116c10152600081816104460152610d97015260008181610dd90152610f3e01526126956000f3fe6080604052600436106101755760003560e01c80638d839ffe116100cb578063aeb8ce9b1161007f578063d555254a11610059578063d555254a14610468578063f14fcbc814610488578063f2fde38b146104a857600080fd5b8063aeb8ce9b146103e0578063ce1e09c014610400578063d3419bf31461043457600080fd5b80639791c097116100b05780639791c09714610379578063a8e5fbc014610399578063acf1a841146103cd57600080fd5b80638d839ffe1461031a5780638da5cb5b1461034e57600080fd5b8063715018a61161012d578063839df94511610107578063839df9451461028d57806383e7f6ff146102c85780638a95b09f1461030357600080fd5b8063715018a61461020c5780637acaaf2614610221578063808698531461023457600080fd5b80633ccfd60b1161015e5780633ccfd60b146101c45780635d3590d5146101d95780636459220f146101f957600080fd5b806301ffc9a71461017a57806315a2b739146101af575b600080fd5b34801561018657600080fd5b5061019a6101953660046119cf565b6104c8565b60405190151581526020015b60405180910390f35b6101c26101bd366004611a11565b610561565b005b3480156101d057600080fd5b506101c26106aa565b3480156101e557600080fd5b506101c26101f4366004611a71565b6106f4565b6101c2610207366004611b22565b610819565b34801561021857600080fd5b506101c2610987565b6101c261022f366004611be3565b610a14565b34801561024057600080fd5b506102687f000000000000000000000000000000000000000000000000000000000000000081565b60405173ffffffffffffffffffffffffffffffffffffffff90911681526020016101a6565b34801561029957600080fd5b506102ba6102a8366004611cbc565b60016020526000908152604090205481565b6040519081526020016101a6565b3480156102d457600080fd5b506102e86102e3366004611db3565b610d4d565b604080518251815260209283015192810192909252016101a6565b34801561030f57600080fd5b506102ba6224ea0081565b34801561032657600080fd5b506102ba7f000000000000000000000000000000000000000000000000000000000000000081565b34801561035a57600080fd5b5060005473ffffffffffffffffffffffffffffffffffffffff16610268565b34801561038557600080fd5b5061019a610394366004611df8565b610ead565b3480156103a557600080fd5b506102687f000000000000000000000000000000000000000000000000000000000000000081565b6101c26103db366004611e2d565b610ee2565b3480156103ec57600080fd5b5061019a6103fb366004611df8565b610ef5565b34801561040c57600080fd5b506102ba7f000000000000000000000000000000000000000000000000000000000000000081565b34801561044057600080fd5b506102687f000000000000000000000000000000000000000000000000000000000000000081565b34801561047457600080fd5b506102ba610483366004611e79565b610fc5565b34801561049457600080fd5b506101c26104a3366004611cbc565b611073565b3480156104b457600080fd5b506101c26104c3366004611f4c565b6110fc565b60007fffffffff0000000000000000000000000000000000000000000000000000000082167f01ffc9a700000000000000000000000000000000000000000000000000000000148061055b57507fffffffff0000000000000000000000000000000000000000000000000000000082167fcadc66b800000000000000000000000000000000000000000000000000000000145b92915050565b600a6105ae610574610120840184611f67565b8080601f01602080910402602001604051908101604052809392919081815260200183838082843760009201919091525061122992505050565b11156105b957600080fd5b6106306105c68280611f67565b6105d66040850160208601611f4c565b604085013560608601356105f060a0880160808901611f4c565b6105fd60a0890189611fcc565b61060d60e08b0160c08c01612034565b61061e6101008c0160e08d01612051565b61022f6101208d016101008e0161206c565b6106406040820160208301611f4c565b73ffffffffffffffffffffffffffffffffffffffff167fbfe313b7348ca4ae38e3d7c768c9be5f92b3e11d470ae430fb7bbda8b917b6bd6106818380611f67565b61068f610120860186611f67565b60405161069f94939291906120b2565b60405180910390a250565b6000805460405173ffffffffffffffffffffffffffffffffffffffff909116914780156108fc02929091818181858888f193505050501580156106f1573d6000803e3d6000fd5b50565b60005473ffffffffffffffffffffffffffffffffffffffff16331461077a576040517f08c379a000000000000000000000000000000000000000000000000000000000815260206004820181905260248201527f4f776e61626c653a2063616c6c6572206973206e6f7420746865206f776e657260448201526064015b60405180910390fd5b6040517fa9059cbb00000000000000000000000000000000000000000000000000000000815273ffffffffffffffffffffffffffffffffffffffff83811660048301526024820183905284169063a9059cbb906044016020604051808303816000875af11580156107ef573d6000803e3d6000fd5b505050506040513d601f19601f8201168201806040525081019061081391906120e4565b50505050565b6000858560405161082b929190612101565b604080519182900382207ff7371317c100d5b60d3ccb1738fb0e94c7aded59790cd01aa2aba4798434e7bf6020840152908201819052915060009060600160408051808303601f190181529082905280516020909101207ff44779b90000000000000000000000000000000000000000000000000000000082526004820181905233602483015291507f000000000000000000000000000000000000000000000000000000000000000073ffffffffffffffffffffffffffffffffffffffff169063f44779b9906044016020604051808303816000875af1158015610914573d6000803e3d6000fd5b505050506040513d601f19601f8201168201806040525081019061093891906120e4565b610971576040517fe4fd57ae00000000000000000000000000000000000000000000000000000000815260048101829052602401610771565b61097e8787878787611430565b50505050505050565b60005473ffffffffffffffffffffffffffffffffffffffff163314610a08576040517f08c379a000000000000000000000000000000000000000000000000000000000815260206004820181905260248201527f4f776e61626c653a2063616c6c6572206973206e6f7420746865206f776e65726044820152606401610771565b610a126000611635565b565b6000610a578c8c8080601f0160208091040260200160405190810160405280939291908181526020018383808284376000920191909152508d9250610d4d915050565b60208101518151919250610a6a91612140565b341015610aa3576040517f1101129400000000000000000000000000000000000000000000000000000000815260040160405180910390fd5b610b478c8c8080601f016020809104026020016040519081016040528093929190818152602001838380828437600081840152601f19601f820116905080830192505050505050508a610b428f8f8080601f016020809104026020016040519081016040528093929190818152602001838380828437600081840152601f19601f820116905080830192505050505050508e8e8e8e8e8e8e8e8e610fc5565b6116aa565b60007f000000000000000000000000000000000000000000000000000000000000000073ffffffffffffffffffffffffffffffffffffffff16639f56dac68e8e8e8e8d8a8a6040518863ffffffff1660e01b8152600401610bae9796959493929190612153565b6020604051808303816000875af1158015610bcd573d6000803e3d6000fd5b505050506040513d601f19601f82011682018060405250810190610bf191906121bd565b90508515610c1c57610c1c888e8e604051610c0d929190612101565b60405180910390208989611827565b8415610c6557610c658d8d8080601f0160208091040260200160405190810160405280939291908181526020018383808284376000920191909152508c925033915061190e9050565b8a73ffffffffffffffffffffffffffffffffffffffff168d8d604051610c8c929190612101565b60405180910390207f69e37f151eb98a09618ddaa80c8cfaf1ce5996867c489f45b555b412271ebf278f8f8660000151876020015187604051610cd39594939291906121d6565b60405180910390a360208201518251610cec9190612140565b341115610d3e576020820151825133916108fc91610d0a9190612140565b610d149034612207565b6040518115909202916000818181858888f19350505050158015610d3c573d6000803e3d6000fd5b505b50505050505050505050505050565b6040805180820190915260008082526020820152825160208401206040517fd6e4fa86000000000000000000000000000000000000000000000000000000008152600481018290527f000000000000000000000000000000000000000000000000000000000000000073ffffffffffffffffffffffffffffffffffffffff908116916350e9a7159187917f00000000000000000000000000000000000000000000000000000000000000009091169063d6e4fa8690602401602060405180830381865afa158015610e22573d6000803e3d6000fd5b505050506040513d601f19601f82011682018060405250810190610e4691906121bd565b866040518463ffffffff1660e01b8152600401610e659392919061226a565b6040805180830381865afa158015610e81573d6000803e3d6000fd5b505050506040513d601f19601f82011682018060405250810190610ea5919061228f565b949350505050565b6000610eb882611229565b825103610ed2576003610eca83611229565b101592915050565b6002610eca83611229565b919050565b610ef0838383600080611430565b505050565b80516020820120600090610f0883610ead565b8015610fbe57506040517f96e494e8000000000000000000000000000000000000000000000000000000008152600481018290527f000000000000000000000000000000000000000000000000000000000000000073ffffffffffffffffffffffffffffffffffffffff16906396e494e890602401602060405180830381865afa158015610f9a573d6000803e3d6000fd5b505050506040513d601f19601f82011682018060405250810190610fbe91906120e4565b9392505050565b895160208b01206000908515801590610ff2575073ffffffffffffffffffffffffffffffffffffffff8816155b15611029576040517fd3f605c400000000000000000000000000000000000000000000000000000000815260040160405180910390fd5b808b8b8a8a8a8e8b8b8b60405160200161104c9a9998979695949392919061238e565b604051602081830303815290604052805190602001209150509a9950505050505050505050565b60008181526001602052604090205442906110af907f000000000000000000000000000000000000000000000000000000000000000090612140565b106110e9576040517f0a059d7100000000000000000000000000000000000000000000000000000000815260048101829052602401610771565b6000908152600160205260409020429055565b60005473ffffffffffffffffffffffffffffffffffffffff16331461117d576040517f08c379a000000000000000000000000000000000000000000000000000000000815260206004820181905260248201527f4f776e61626c653a2063616c6c6572206973206e6f7420746865206f776e65726044820152606401610771565b73ffffffffffffffffffffffffffffffffffffffff8116611220576040517f08c379a000000000000000000000000000000000000000000000000000000000815260206004820152602660248201527f4f776e61626c653a206e6577206f776e657220697320746865207a65726f206160448201527f64647265737300000000000000000000000000000000000000000000000000006064820152608401610771565b6106f181611635565b8051600090819081905b8082101561142757600085838151811061124f5761124f612410565b01602001517fff000000000000000000000000000000000000000000000000000000000000001690507f80000000000000000000000000000000000000000000000000000000000000008110156112b2576112ab600184612140565b9250611414565b7fe0000000000000000000000000000000000000000000000000000000000000007fff0000000000000000000000000000000000000000000000000000000000000082161015611307576112ab600284612140565b7ff0000000000000000000000000000000000000000000000000000000000000007fff000000000000000000000000000000000000000000000000000000000000008216101561135c576112ab600384612140565b7ff8000000000000000000000000000000000000000000000000000000000000007fff00000000000000000000000000000000000000000000000000000000000000821610156113b1576112ab600484612140565b7ffc000000000000000000000000000000000000000000000000000000000000007fff0000000000000000000000000000000000000000000000000000000000000082161015611406576112ab600584612140565b611411600684612140565b92505b508261141f8161243f565b935050611233565b50909392505050565b60008585604051611442929190612101565b604080519182900382206020601f89018190048102840181019092528783529250829160009161148f91908a908a90819084018382808284376000920191909152508a9250610d4d915050565b80519091503410156114cd576040517f1101129400000000000000000000000000000000000000000000000000000000815260040160405180910390fd5b6040517f47d2e9fe000000000000000000000000000000000000000000000000000000008152600481018390526024810187905263ffffffff8616604482015267ffffffffffffffff851660648201526000907f000000000000000000000000000000000000000000000000000000000000000073ffffffffffffffffffffffffffffffffffffffff16906347d2e9fe906084016020604051808303816000875af1158015611580573d6000803e3d6000fd5b505050506040513d601f19601f820116820180604052508101906115a491906121bd565b82519091503411156115ec57815133906108fc906115c29034612207565b6040518115909202916000818181858888f193505050501580156115ea573d6000803e3d6000fd5b505b837f3da24c024582931cfaf8267d8ed24d13a82a8068d5bd337d30ec45cea4e506ae8a8a34856040516116229493929190612477565b60405180910390a2505050505050505050565b6000805473ffffffffffffffffffffffffffffffffffffffff8381167fffffffffffffffffffffffff0000000000000000000000000000000000000000831681178455604051919092169283917f8be0079c531659141344cd1fd0a4f28419497f9722a3daafe3b4186f6b6457e09190a35050565b60008181526001602052604090205442906116e6907f000000000000000000000000000000000000000000000000000000000000000090612140565b1115611721576040517f5320bcf900000000000000000000000000000000000000000000000000000000815260048101829052602401610771565b600081815260016020526040902054429061175d907f000000000000000000000000000000000000000000000000000000000000000090612140565b11611797576040517fcb7690d700000000000000000000000000000000000000000000000000000000815260048101829052602401610771565b6117a083610ef5565b6117d857826040517f477707e8000000000000000000000000000000000000000000000000000000008152600401610771919061249e565b6000818152600160205260408120556224ea00821015610ef0576040517f9a71997b00000000000000000000000000000000000000000000000000000000815260048101839052602401610771565b604080517ff7371317c100d5b60d3ccb1738fb0e94c7aded59790cd01aa2aba4798434e7bf602080830191909152818301869052825180830384018152606083019384905280519101207fe32954eb00000000000000000000000000000000000000000000000000000000909252859073ffffffffffffffffffffffffffffffffffffffff82169063e32954eb906118c7908590889088906064016124b1565b6000604051808303816000875af11580156118e6573d6000803e3d6000fd5b505050506040513d6000823e601f3d908101601f1916820160405261097e91908101906124d4565b7f000000000000000000000000000000000000000000000000000000000000000073ffffffffffffffffffffffffffffffffffffffff16637a806d6b3383858760405160200161195e91906125d3565b6040516020818303038152906040526040518563ffffffff1660e01b815260040161198c9493929190612614565b6020604051808303816000875af11580156119ab573d6000803e3d6000fd5b505050506040513d601f19601f8201168201806040525081019061081391906121bd565b6000602082840312156119e157600080fd5b81357fffffffff0000000000000000000000000000000000000000000000000000000081168114610fbe57600080fd5b600060208284031215611a2357600080fd5b813567ffffffffffffffff811115611a3a57600080fd5b82016101408185031215610fbe57600080fd5b803573ffffffffffffffffffffffffffffffffffffffff81168114610edd57600080fd5b600080600060608486031215611a8657600080fd5b611a8f84611a4d565b9250611a9d60208501611a4d565b9150604084013590509250925092565b60008083601f840112611abf57600080fd5b50813567ffffffffffffffff811115611ad757600080fd5b602083019150836020828501011115611aef57600080fd5b9250929050565b803563ffffffff81168114610edd57600080fd5b803567ffffffffffffffff81168114610edd57600080fd5b600080600080600060808688031215611b3a57600080fd5b853567ffffffffffffffff811115611b5157600080fd5b611b5d88828901611aad565b90965094505060208601359250611b7660408701611af6565b9150611b8460608701611b0a565b90509295509295909350565b60008083601f840112611ba257600080fd5b50813567ffffffffffffffff811115611bba57600080fd5b6020830191508360208260051b8501011115611aef57600080fd5b80151581146106f157600080fd5b60008060008060008060008060008060006101208c8e031215611c0557600080fd5b67ffffffffffffffff808d351115611c1c57600080fd5b611c298e8e358f01611aad565b909c509a50611c3a60208e01611a4d565b995060408d0135985060608d01359750611c5660808e01611a4d565b96508060a08e01351115611c6957600080fd5b50611c7a8d60a08e01358e01611b90565b909550935060c08c0135611c8d81611bd5565b9250611c9b60e08d01611af6565b9150611caa6101008d01611b0a565b90509295989b509295989b9093969950565b600060208284031215611cce57600080fd5b5035919050565b7f4e487b7100000000000000000000000000000000000000000000000000000000600052604160045260246000fd5b604051601f8201601f1916810167ffffffffffffffff81118282101715611d2d57611d2d611cd5565b604052919050565b600067ffffffffffffffff821115611d4f57611d4f611cd5565b50601f01601f191660200190565b600082601f830112611d6e57600080fd5b8135611d81611d7c82611d35565b611d04565b818152846020838601011115611d9657600080fd5b816020850160208301376000918101602001919091529392505050565b60008060408385031215611dc657600080fd5b823567ffffffffffffffff811115611ddd57600080fd5b611de985828601611d5d565b95602094909401359450505050565b600060208284031215611e0a57600080fd5b813567ffffffffffffffff811115611e2157600080fd5b610ea584828501611d5d565b600080600060408486031215611e4257600080fd5b833567ffffffffffffffff811115611e5957600080fd5b611e6586828701611aad565b909790965060209590950135949350505050565b6000806000806000806000806000806101208b8d031215611e9957600080fd5b8a3567ffffffffffffffff80821115611eb157600080fd5b611ebd8e838f01611d5d565b9b50611ecb60208e01611a4d565b9a5060408d0135995060608d01359850611ee760808e01611a4d565b975060a08d0135915080821115611efd57600080fd5b50611f0a8d828e01611b90565b90965094505060c08b0135611f1e81611bd5565b9250611f2c60e08c01611af6565b9150611f3b6101008c01611b0a565b90509295989b9194979a5092959850565b600060208284031215611f5e57600080fd5b610fbe82611a4d565b60008083357fffffffffffffffffffffffffffffffffffffffffffffffffffffffffffffffe1843603018112611f9c57600080fd5b83018035915067ffffffffffffffff821115611fb757600080fd5b602001915036819003821315611aef57600080fd5b60008083357fffffffffffffffffffffffffffffffffffffffffffffffffffffffffffffffe184360301811261200157600080fd5b83018035915067ffffffffffffffff82111561201c57600080fd5b6020019150600581901b3603821315611aef57600080fd5b60006020828403121561204657600080fd5b8135610fbe81611bd5565b60006020828403121561206357600080fd5b610fbe82611af6565b60006020828403121561207e57600080fd5b610fbe82611b0a565b818352818160208501375060006020828401015260006020601f19601f840116840101905092915050565b6040815260006120c6604083018688612087565b82810360208401526120d9818587612087565b979650505050505050565b6000602082840312156120f657600080fd5b8151610fbe81611bd5565b8183823760009101908152919050565b7f4e487b7100000000000000000000000000000000000000000000000000000000600052601160045260246000fd5b8082018082111561055b5761055b612111565b60c08152600061216760c08301898b612087565b905073ffffffffffffffffffffffffffffffffffffffff808816602084015286604084015280861660608401525063ffffffff8416608083015267ffffffffffffffff831660a083015298975050505050505050565b6000602082840312156121cf57600080fd5b5051919050565b6080815260006121ea608083018789612087565b602083019590955250604081019290925260609091015292915050565b8181038181111561055b5761055b612111565b60005b8381101561223557818101518382015260200161221d565b50506000910152565b6000815180845261225681602086016020860161221a565b601f01601f19169290920160200192915050565b60608152600061227d606083018661223e565b60208301949094525060400152919050565b6000604082840312156122a157600080fd5b6040516040810181811067ffffffffffffffff821117156122c4576122c4611cd5565b604052825181526020928301519281019290925250919050565b81835260006020808501808196508560051b810191508460005b8781101561238157828403895281357fffffffffffffffffffffffffffffffffffffffffffffffffffffffffffffffe188360301811261233757600080fd5b8701858101903567ffffffffffffffff81111561235357600080fd5b80360382131561236257600080fd5b61236d868284612087565b9a87019a95505050908401906001016122f8565b5091979650505050505050565b60006101208c835273ffffffffffffffffffffffffffffffffffffffff808d1660208501528b6040850152808b166060850152508060808401526123d5818401898b6122de565b60a0840197909752505092151560c084015263ffffffff9190911660e083015267ffffffffffffffff16610100909101529695505050505050565b7f4e487b7100000000000000000000000000000000000000000000000000000000600052603260045260246000fd5b60007fffffffffffffffffffffffffffffffffffffffffffffffffffffffffffffffff820361247057612470612111565b5060010190565b60608152600061248b606083018688612087565b6020830194909452506040015292915050565b602081526000610fbe602083018461223e565b8381526040602082015260006124cb6040830184866122de565b95945050505050565b600060208083850312156124e757600080fd5b825167ffffffffffffffff808211156124ff57600080fd5b818501915085601f83011261251357600080fd5b81518181111561252557612525611cd5565b8060051b612534858201611d04565b918252838101850191858101908984111561254e57600080fd5b86860192505b838310156125c65782518581111561256c5760008081fd5b8601603f81018b1361257e5760008081fd5b878101516040612590611d7c83611d35565b8281528d828486010111156125a55760008081fd5b6125b4838c830184870161221a565b85525050509186019190860190612554565b9998505050505050505050565b600082516125e581846020870161221a565b7f2e736e7300000000000000000000000000000000000000000000000000000000920191825250600401919050565b600073ffffffffffffffffffffffffffffffffffffffff8087168352808616602084015280851660408401525060806060830152612655608083018461223e565b969550505050505056fea2646970667358221220d3b4f70b4bb95f91a1d9a8304fd266f13d9c0edf7be13599055d88f57701506a64736f6c63430008110033",
  "linkReferences": {},
  "deployedLinkReferences": {}
}